{
  "_format": "hh-sol-artifact-1",
  "contractName": "Token",
  "sourceName": "contracts/Token.sol",
  "abi": [
    {
      "inputs": [],
      "stateMutability": "nonpayable",
      "type": "constructor"
    },
    {
      "inputs": [
        {
          "internalType": "address",
          "name": "",
          "type": "address"
        }
      ],
      "name": "balances",
      "outputs": [
        {
          "internalType": "uint256",
          "name": "",
          "type": "uint256"
        }
      ],
      "stateMutability": "view",
      "type": "function"
    },
    {
      "inputs": [],
      "name": "decimals",
      "outputs": [
        {
          "internalType": "uint8",
          "name": "",
          "type": "uint8"
        }
      ],
      "stateMutability": "view",
      "type": "function"
    },
    {
      "inputs": [],
      "name": "name",
      "outputs": [
        {
          "internalType": "string",
          "name": "",
          "type": "string"
        }
      ],
      "stateMutability": "view",
      "type": "function"
    },
    {
      "inputs": [],
      "name": "owner",
      "outputs": [
        {
          "internalType": "address",
          "name": "",
          "type": "address"
        }
      ],
      "stateMutability": "view",
      "type": "function"
    },
    {
      "inputs": [],
      "name": "symbol",
      "outputs": [
        {
          "internalType": "string",
          "name": "",
          "type": "string"
        }
      ],
      "stateMutability": "view",
      "type": "function"
    },
    {
      "inputs": [],
      "name": "totalSupply",
      "outputs": [
        {
          "internalType": "uint256",
          "name": "",
          "type": "uint256"
        }
      ],
      "stateMutability": "view",
      "type": "function"
    },
    {
      "inputs": [
        {
          "internalType": "address",
          "name": "recipient",
          "type": "address"
        },
        {
          "internalType": "uint256",
          "name": "amount",
          "type": "uint256"
        }
      ],
      "name": "transfer",
      "outputs": [],
      "stateMutability": "nonpayable",
      "type": "function"
    }
  ],
  "bytecode": "0x60806040526040518060400160405280600a81526020017f544f4b454e204e414d4500000000000000000000000000000000000000000000815250600090816200004a9190620003ee565b506040518060400160405280600b81526020017f53494d424f4c204e414d4500000000000000000000000000000000000000000081525060019081620000919190620003ee565b506012600260006101000a81548160ff021916908360ff1602179055506402540be400600355348015620000c457600080fd5b5033600560006101000a81548173ffffffffffffffffffffffffffffffffffffffff021916908373ffffffffffffffffffffffffffffffffffffffff16021790555060035460046000600560009054906101000a900473ffffffffffffffffffffffffffffffffffffffff1673ffffffffffffffffffffffffffffffffffffffff1673ffffffffffffffffffffffffffffffffffffffff16815260200190815260200160002081905550620004d5565b600081519050919050565b7f4e487b7100000000000000000000000000000000000000000000000000000000600052604160045260246000fd5b7f4e487b7100000000000000000000000000000000000000000000000000000000600052602260045260246000fd5b60006002820490506001821680620001f657607f821691505b6020821081036200020c576200020b620001ae565b5b50919050565b60008190508160005260206000209050919050565b60006020601f8301049050919050565b600082821b905092915050565b600060088302620002767fffffffffffffffffffffffffffffffffffffffffffffffffffffffffffffffff8262000237565b62000282868362000237565b95508019841693508086168417925050509392505050565b6000819050919050565b6000819050919050565b6000620002cf620002c9620002c3846200029a565b620002a4565b6200029a565b9050919050565b6000819050919050565b620002eb83620002ae565b62000303620002fa82620002d6565b84845462000244565b825550505050565b600090565b6200031a6200030b565b62000327818484620002e0565b505050565b5b818110156200034f576200034360008262000310565b6001810190506200032d565b5050565b601f8211156200039e57620003688162000212565b620003738462000227565b8101602085101562000383578190505b6200039b620003928562000227565b8301826200032c565b50505b505050565b600082821c905092915050565b6000620003c360001984600802620003a3565b1980831691505092915050565b6000620003de8383620003b0565b9150826002028217905092915050565b620003f98262000174565b67ffffffffffffffff8111156200041557620004146200017f565b5b620004218254620001dd565b6200042e82828562000353565b600060209050601f83116001811462000466576000841562000451578287015190505b6200045d8582620003d0565b865550620004cd565b601f198416620004768662000212565b60005b82811015620004a05784890151825560018201915060208501945060208101905062000479565b86831015620004c05784890151620004bc601f891682620003b0565b8355505b6001600288020188555050505b505050505050565b6107e580620004e56000396000f3fe608060405234801561001057600080fd5b506004361061007d5760003560e01c8063313ce5671161005b578063313ce567146100ee5780638da5cb5b1461010c57806395d89b411461012a578063a9059cbb146101485761007d565b806306fdde031461008257806318160ddd146100a057806327e235e3146100be575b600080fd5b61008a610164565b6040516100979190610499565b60405180910390f35b6100a86101f2565b6040516100b591906104d4565b60405180910390f35b6100d860048036038101906100d39190610552565b6101f8565b6040516100e591906104d4565b60405180910390f35b6100f6610210565b604051610103919061059b565b60405180910390f35b610114610223565b60405161012191906105c5565b60405180910390f35b610132610249565b60405161013f9190610499565b60405180910390f35b610162600480360381019061015d919061060c565b6102d7565b005b600080546101719061067b565b80601f016020809104026020016040519081016040528092919081815260200182805461019d9061067b565b80156101ea5780601f106101bf576101008083540402835291602001916101ea565b820191906000526020600020905b8154815290600101906020018083116101cd57829003601f168201915b505050505081565b60035481565b60046020528060005260406000206000915090505481565b600260009054906101000a900460ff1681565b600560009054906101000a900473ffffffffffffffffffffffffffffffffffffffff1681565b600180546102569061067b565b80601f01602080910402602001604051908101604052809291908181526020018280546102829061067b565b80156102cf5780601f106102a4576101008083540402835291602001916102cf565b820191906000526020600020905b8154815290600101906020018083116102b257829003601f168201915b505050505081565b80600460003373ffffffffffffffffffffffffffffffffffffffff1673ffffffffffffffffffffffffffffffffffffffff168152602001908152602001600020541015610359576040517f08c379a0000000000000000000000000000000000000000000000000000000008152600401610350906106f8565b60405180910390fd5b80600460003373ffffffffffffffffffffffffffffffffffffffff1673ffffffffffffffffffffffffffffffffffffffff16815260200190815260200160002060008282546103a89190610747565b9250508190555080600460008473ffffffffffffffffffffffffffffffffffffffff1673ffffffffffffffffffffffffffffffffffffffff16815260200190815260200160002060008282546103fe919061077b565b925050819055505050565b600081519050919050565b600082825260208201905092915050565b60005b83811015610443578082015181840152602081019050610428565b60008484015250505050565b6000601f19601f8301169050919050565b600061046b82610409565b6104758185610414565b9350610485818560208601610425565b61048e8161044f565b840191505092915050565b600060208201905081810360008301526104b38184610460565b905092915050565b6000819050919050565b6104ce816104bb565b82525050565b60006020820190506104e960008301846104c5565b92915050565b600080fd5b600073ffffffffffffffffffffffffffffffffffffffff82169050919050565b600061051f826104f4565b9050919050565b61052f81610514565b811461053a57600080fd5b50565b60008135905061054c81610526565b92915050565b600060208284031215610568576105676104ef565b5b60006105768482850161053d565b91505092915050565b600060ff82169050919050565b6105958161057f565b82525050565b60006020820190506105b0600083018461058c565b92915050565b6105bf81610514565b82525050565b60006020820190506105da60008301846105b6565b92915050565b6105e9816104bb565b81146105f457600080fd5b50565b600081359050610606816105e0565b92915050565b60008060408385031215610623576106226104ef565b5b60006106318582860161053d565b9250506020610642858286016105f7565b9150509250929050565b7f4e487b7100000000000000000000000000000000000000000000000000000000600052602260045260246000fd5b6000600282049050600182168061069357607f821691505b6020821081036106a6576106a561064c565b5b50919050565b7f496e73756666696369656e742062616c616e63652e0000000000000000000000600082015250565b60006106e2601583610414565b91506106ed826106ac565b602082019050919050565b60006020820190508181036000830152610711816106d5565b9050919050565b7f4e487b7100000000000000000000000000000000000000000000000000000000600052601160045260246000fd5b6000610752826104bb565b915061075d836104bb565b925082820390508181111561077557610774610718565b5b92915050565b6000610786826104bb565b9150610791836104bb565b92508282019050808211156107a9576107a8610718565b5b9291505056fea264697066735822122077b7e0e51350bebab359b03782094552cc4b192c6cc2e8c2237e2527aedae9fd64736f6c63430008110033",
  "linkReferences": {},
  "deployedLinkReferences": {}
}